{
  "contractName": "Carabiner",
  "abi": [
    {
      "constant": false,
      "inputs": [
        {
          "name": "_username",
          "type": "bytes16[]"
        },
        {
          "name": "_url",
          "type": "bytes16[]"
        },
        {
          "name": "_password",
          "type": "bytes16[]"
        }
      ],
      "name": "addHexSet",
      "outputs": [
        {
          "name": "",
          "type": "uint256"
        }
      ],
      "payable": false,
      "stateMutability": "nonpayable",
      "type": "function"
    },
    {
      "constant": false,
      "inputs": [
        {
          "name": "_id",
          "type": "uint256"
        },
        {
          "name": "_username",
          "type": "bytes16[]"
        }
      ],
      "name": "changeHexSetUsername",
      "outputs": [],
      "payable": false,
      "stateMutability": "nonpayable",
      "type": "function"
    },
    {
      "constant": false,
      "inputs": [
        {
          "name": "_id",
          "type": "uint256"
        },
        {
          "name": "_url",
          "type": "bytes16[]"
        }
      ],
      "name": "changeHexSetURL",
      "outputs": [],
      "payable": false,
      "stateMutability": "nonpayable",
      "type": "function"
    },
    {
      "constant": false,
      "inputs": [
        {
          "name": "_id",
          "type": "uint256"
        },
        {
          "name": "_password",
          "type": "bytes16[]"
        }
      ],
      "name": "changeHexSetPassword",
      "outputs": [],
      "payable": false,
      "stateMutability": "nonpayable",
      "type": "function"
    },
    {
      "constant": true,
      "inputs": [
        {
          "name": "_id",
          "type": "uint256"
        }
      ],
      "name": "getHexSetAt",
      "outputs": [
        {
          "name": "_username",
          "type": "bytes16[]"
        },
        {
          "name": "_url",
          "type": "bytes16[]"
        },
        {
          "name": "_password",
          "type": "bytes16[]"
        }
      ],
      "payable": false,
      "stateMutability": "view",
      "type": "function"
    },
    {
      "constant": true,
      "inputs": [],
      "name": "getHexSetCount",
      "outputs": [
        {
          "name": "",
          "type": "uint256"
        }
      ],
      "payable": false,
      "stateMutability": "view",
      "type": "function"
    }
  ],
  "bytecode": "0x608060405234801561001057600080fd5b50610b0e806100206000396000f300608060405260043610610078576000357c0100000000000000000000000000000000000000000000000000000000900463ffffffff16806307f8ad871461007d57806340d85a451461017d57806386a3cafc146101ed5780638c3b19bf146102ff578063b1b454371461036f578063df316b9f1461039a575b600080fd5b34801561008957600080fd5b5061016760048036038101908080359060200190820180359060200190808060200260200160405190810160405280939291908181526020018383602002808284378201915050505050509192919290803590602001908201803590602001908080602002602001604051908101604052809392919081815260200183836020028082843782019150505050505091929192908035906020019082018035906020019080806020026020016040519081016040528093929190818152602001838360200280828437820191505050505050919291929050505061040a565b6040518082815260200191505060405180910390f35b34801561018957600080fd5b506101eb6004803603810190808035906020019092919080359060200190820180359060200190808060200260200160405190810160405280939291908181526020018383602002808284378201915050505050509192919290505050610513565b005b3480156101f957600080fd5b5061021860048036038101908080359060200190929190505050610588565b60405180806020018060200180602001848103845287818151815260200191508051906020019060200280838360005b83811015610263578082015181840152602081019050610248565b50505050905001848103835286818151815260200191508051906020019060200280838360005b838110156102a557808201518184015260208101905061028a565b50505050905001848103825285818151815260200191508051906020019060200280838360005b838110156102e75780820151818401526020810190506102cc565b50505050905001965050505050505060405180910390f35b34801561030b57600080fd5b5061036d60048036038101908080359060200190929190803590602001908201803590602001908080602002602001604051908101604052809392919081815260200183836020028082843782019150505050505091929192905050506107cc565b005b34801561037b57600080fd5b50610384610841565b6040518082815260200191505060405180910390f35b3480156103a657600080fd5b50610408600480360381019080803590602001909291908035906020019082018035906020019080806020026020016040519081016040528093929190818152602001838360200280828437820191505050505050919291929050505061088a565b005b60008060008060003373ffffffffffffffffffffffffffffffffffffffff1673ffffffffffffffffffffffffffffffffffffffff168152602001908152602001600020805480919060010161045f91906108ff565b91506000803373ffffffffffffffffffffffffffffffffffffffff1673ffffffffffffffffffffffffffffffffffffffff168152602001908152602001600020828154811015156104ac57fe5b90600052602060002090600302019050858160000190805190602001906104d4929190610931565b50848160010190805190602001906104ed929190610931565b5083816002019080519060200190610506929190610931565b5081925050509392505050565b806000803373ffffffffffffffffffffffffffffffffffffffff1673ffffffffffffffffffffffffffffffffffffffff1681526020019081526020016000208381548110151561055f57fe5b90600052602060002090600302016000019080519060200190610583929190610931565b505050565b606080606060008060003373ffffffffffffffffffffffffffffffffffffffff1673ffffffffffffffffffffffffffffffffffffffff168152602001908152602001600020858154811015156105da57fe5b906000526020600020906003020190508060000181600101826002018280548060200260200160405190810160405280929190818152602001828054801561068757602002820191906000526020600020906000905b82829054906101000a9004700100000000000000000000000000000000026fffffffffffffffffffffffffffffffff191681526020019060100190602082600f010492830192600103820291508084116106305790505b505050505092508180548060200260200160405190810160405280929190818152602001828054801561071f57602002820191906000526020600020906000905b82829054906101000a9004700100000000000000000000000000000000026fffffffffffffffffffffffffffffffff191681526020019060100190602082600f010492830192600103820291508084116106c85790505b50505050509150808054806020026020016040519081016040528092919081815260200182805480156107b757602002820191906000526020600020906000905b82829054906101000a9004700100000000000000000000000000000000026fffffffffffffffffffffffffffffffff191681526020019060100190602082600f010492830192600103820291508084116107605790505b50505050509050935093509350509193909250565b806000803373ffffffffffffffffffffffffffffffffffffffff1673ffffffffffffffffffffffffffffffffffffffff1681526020019081526020016000208381548110151561081857fe5b9060005260206000209060030201600101908051906020019061083c929190610931565b505050565b60008060003373ffffffffffffffffffffffffffffffffffffffff1673ffffffffffffffffffffffffffffffffffffffff16815260200190815260200160002080549050905090565b806000803373ffffffffffffffffffffffffffffffffffffffff1673ffffffffffffffffffffffffffffffffffffffff168152602001908152602001600020838154811015156108d657fe5b906000526020600020906003020160020190805190602001906108fa929190610931565b505050565b81548183558181111561092c5760030281600302836000526020600020918201910161092b9190610a07565b5b505050565b828054828255906000526020600020906001016002900481019282156109f65791602002820160005b838211156109b857835183826101000a8154816fffffffffffffffffffffffffffffffff0219169083700100000000000000000000000000000000900402179055509260200192601001602081600f0104928301926001030261095a565b80156109f45782816101000a8154906fffffffffffffffffffffffffffffffff0219169055601001602081600f010492830192600103026109b8565b505b509050610a039190610a56565b5090565b610a5391905b80821115610a4f5760008082016000610a269190610a95565b600182016000610a369190610a95565b600282016000610a469190610a95565b50600301610a0d565b5090565b90565b610a9291905b80821115610a8e57600081816101000a8154906fffffffffffffffffffffffffffffffff021916905550600101610a5c565b5090565b90565b508054600082556001016002900490600052602060002090810190610aba9190610abd565b50565b610adf91905b80821115610adb576000816000905550600101610ac3565b5090565b905600a165627a7a72305820152ccce59e3bc2b3362500377cbc144131f0d938a81dee311fab3cab7f0f5fa20029",
  "source": "pragma solidity ^0.4.23;\n\ncontract Carabiner {\n\n    // Private here does nothing other than make it slightly harder\n    // to access. Security comes from AES and not obscurity.\n    mapping (address => HexSetHolder[]) private hexSetOf;\n\n    // Seperated into different bytes sets to decrease gas costs when\n    // changing username, url or password\n    struct HexSetHolder {\n        bytes16[] username;\n        bytes16[] url;\n        bytes16[] password;\n    }\n\n    // Initialzies new hex set for sender\n    function addHexSet(\n        bytes16[] _username,\n        bytes16[] _url,\n        bytes16[] _password\n    ) public returns(uint256){\n        uint256 setID = hexSetOf[msg.sender].length++;\n        HexSetHolder storage h = hexSetOf[msg.sender][setID];\n        h.username = _username;\n        h.url = _url;\n        h.password = _password;\n        return setID;\n    }\n\n\n    function changeHexSetUsername(uint256 _id, bytes16[] _username) public {\n        hexSetOf[msg.sender][_id].username = _username;\n    }\n\n    function changeHexSetURL(uint256 _id, bytes16[] _url) public {\n        hexSetOf[msg.sender][_id].url = _url;\n    }\n\n    function changeHexSetPassword(uint256 _id, bytes16[] _password) public {\n        hexSetOf[msg.sender][_id].password = _password;\n    }\n\n    function getHexSetAt(uint256 _id) public view returns(\n        bytes16[] _username, bytes16[] _url, bytes16[] _password\n    ) {\n        HexSetHolder storage h = hexSetOf[msg.sender][_id];\n        return (h.username, h.url, h.password);\n    }\n\n    function getHexSetCount() public view returns(uint256) {\n        return hexSetOf[msg.sender].length;\n    }\n}\n",
  "sourcePath": "/home/brandon/Github/carabiner/contracts/Carabiner.sol",
  "compiler": {
    "name": "solc",
    "version": "0.4.24+commit.e67f0147.Emscripten.clang"
  },
  "schemaVersion": "2.0.1",
  "updatedAt": "2018-08-05T05:28:32.984Z"
}